S0250000436F6E74726F6C652064652056656E74696C61646F7220536D617274202E7372656351
S11300000C9447000C9464000C9464000C946400F9
S11300100C9464000C9464000C9477010C946400B8
S11300200C949E010C9464000C9464000C94640081
S11300300C9464000C9464000C9464000C946400AC
S11300400C9464000C9464000C9464000C9464009C
S11300500C94BF030C9464000C9464000C9464002E
S11300600C9464000C9464000C9464000C94C30419
S11300700C94EC040C9464000C9464006A096D09FB
S113008070097309800984098809B809B60911241B
S11300901FBECFEFCDBFDFE3DEBF18E3A0E0B8E3C0
S11300A0E9E2FAE202C005900D92A636B107D9F74B
S11300B029E3A6E6B8E301C01D92A637B207E1F72B
S11300C00E94A8020C94EF140C940000882321F0E1
S11300D099B1916099B903C099B19E7F99B9809300
S11300E06A38682F85E00E94E905089580916A388E
S11300F0813021F480E00E946600089581E00E942E
S113010066000895509B02C080E0089581E0089540
S113011080916B38089590916B389130B9F4909137
S11301206C38981799F0682F80936C3880E395E7C2
S1130130809368389093693881B1877F81B981B1A0
S11301408B7F81B986E60E9449060895823031F496
S113015081B1877F81B981B18B7F81B90895809105
S11301606C38089580916C38811106C091B1986003
S113017091B991B19B7F91B9813031F481B1877F7D
S113018081B981B1846081B908950E94B200089553
S1130190CF93C82F80936B38811104C082E00E94F2
S11301A08B0002C00E94C5006C2F81E00E94E9050B
S11301B080916B380E941E0BCF91089580916B380B
S11301C0813021F480E00E94C800089581E00E94FB
S11301D0C800089580930138682F70E080E090E0B3
S11301E00E94F01320E030E040EC5FE30E947C14B6
S11301F09B01AC0160E070E086E193E40E94E012B0
S11302000E94BF13862F0E94180B4091013850E0C2
S113021060E070E084E00E940F0608950E94210BC4
S1130220813079F480910138813520F48C5E80939B
S1130230013803C084E680930138809101380E941C
S1130240EA0008950E94210B813079F480910138ED
S1130250843120F084518093013803C084E1809379
S11302600138809101380E94EA0008958091013894
S11302700895809300380895809100388130B1F05A
S113028028F0823019F1833029F128C08091663832
S113029090916738892B29F584EC99E0809366382E
S11302A09093673886B1806186B9089580916638E5
S11302B090916738892BA9F488E893E18093663894
S11302C09093673886B1806186B9089585B180615D
S11302D085B9089585B18F7E85B9089585B18F7EDE
S11302E085B908950E9429040E94630308951F920A
S11302F00F920FB60F9211242F933F934F935F9356
S11303006F937F938F939F93AF93BF93EF93FF93D9
S11303100E949F0382E080934301FF91EF91BF917C
S1130320AF919F918F917F916F915F914F913F9189
S11303302F910F900FBE0F901F9018951F920F9240
S11303400FB60F9211242F933F934F935F936F93A4
S11303507F938F939F93AF93BF93EF93FF9380917A
S1130360683890916938009749F021E020936D38FE
S11303700197809368389093693808C080916D38EC
S1130380882321F010926D380E94B2008091663863
S113039090916738009729F001978093663890937D
S11303A067380E943C010E94F00981E080930B0AA7
S11303B0FF91EF91BF91AF919F918F917F916F9139
S11303C05F914F913F912F910F900FBE0F901F900F
S11303D0189580E090E00E94B003807880936E3896
S11303E0882351F090917438911106C00E947600D0
S11303F081E08093743807C0811105C080917438FE
S113040081111092743881E090E00E94B0038078EA
S113041080936E38882351F090917338911106C0FF
S11304200E94DE0081E08093733807C0811105C00B
S11304308091733881111092733882E090E00E94A9
S1130440B003807880936E38882351F0909172388D
S1130450911106C00E94220181E08093723807C086
S1130460811105C08091723881111092723883E035
S113047090E00E94B003807880936E38882359F00E
S113048090917138911107C081E00E948B0081E046
S11304908093713807C0811105C080917138811132
S11304A01092713884E090E00E94B00380788093C9
S11304B06E38882351F090917038911106C00E94D3
S11304C00E0181E08093703807C0811105C08091CE
S11304D0703881111092703885E090E00E94B0036A
S11304E0807880936E38882359F090916F389111F9
S11304F007C080E00E948B0081E080936F380895EC
S1130500811105C080916F38811110926F38089560
S113051078940E946B0380917638813021F4109294
S113052076380E94E9010895882321F081B1826020
S113053081B9089581B18D7F81B9089586B185FB14
S1130540882780F90895809100080E947106089513
S1130550CF93DF93CDB7DEB72697CDBFDEBF0E9422
S113056072018EE992E0482F89839A8384E992E0AC
S1130570682F8B839C835A817C8180E090E00E9469
S1130580F90A61E083EA92E00E94B4040E942B0716
S11305900E9488020E949E060E943B07813051F00F
S11305A028F0823059F0833069F0F2CF80E00E9465
S11305B03901EECF81E00E943901EACF83E00E9445
S11305C03901E6CF82E00E943901E2CFE7E1F4E0AD
S11305D08081877F80838081887F84608083E4E159
S11305E0F4E08081877F80838081887F846080833A
S11305F0E5E1F4E08081877F80838081887F846067
S11306008083E0E3F4E08081877F80838081887F3A
S113061084608083E6E1F4E08081877F8083808149
S1130620887F84608083E1E3F4E08081877F808336
S11306308081887F84608083089581E08093773807
S113064008958F5F809375380895CF93DF9386E282
S113065098E30E949C118DEC98E30E94E211C0E0A3
S1130660D0E00BC0BE0186E298E30E945412BE01A2
S113067086E298E30E9473122196C630D10590F366
S1130680C0E0D0E00FC0AE01440F551F440F551F0A
S11306904C0F5D1F4155574C6C2F82E098E30E942C
S11306A0980B2196C630D10570F380E0DF91CF918D
S11306B008959091410192FDFCCF90E080934A010E
S11306C090934B01089580E20E9459030E94E60230
S11306D00E942503089580917838813051F46DE1AA
S11306E073E086E298E30E94EC11811102C010923B
S11306F0783880917738813009F5109277380E94E4
S11307001E1081110AC082E098E30E94B70B88236F
S113071039F081E00E94210303C080E00E9421039C
S1130720E0910238F09103388081882324F481E039
S113073080937838089581E0809376380895809185
S1130740AE388F5F8093AE38843148F01092AE3863
S113075081E08093783884E190E00E948D0B0895C5
S1130760E0910638F09107389C01220F331F820F65
S1130770931F880F991FE80FF91F808108951F9216
S11307800F920FB60F9211242F933F934F935F93C1
S11307906F937F938F939F93AF93BF93EF93FF9345
S11307A00E94B412FF91EF91BF91AF919F918F91ED
S11307B07F916F915F914F913F912F910F900FBE59
S11307C00F901F90189580E0089540E068ED81E651
S11307D090E00E94600480E00895789480E0089599
S11307E080E008C0E82FF0E0E05FFB4F9081986064
S11307F090838F5F8830B0F380E008C0E82FF0E08A
S1130800E05DFB4F9081986090838F5F8830B0F3F8
S113081080E008C0E82FF0E0E05BFB4F9081986037
S113082090838F5F8830B0F3089584B1877F84B953
S1130830E3E3F4E08081877F808385B18B7F85B992
S113084084B1846084B90E94340508950E947204BE
S113085008950E94F00381B18D7F81B980B18260D7
S113086080B981B18B7F81B980B1846080B981B155
S1130870877F81B980B1886080B985B18F7E85B961
S113088084B1806184B984B18F7D84B9E5E3F4E0F7
S11308908081877F808389B18E7F89B988B18160A7
S11308A088B90E94E5030E9464040E9415040E9412
S11308B026040E94ED030E9470040E94E30308953D
S11308C0FC0164BF40830895809141018111FCCFF4
S11308D0E0E4F1E081E8808382E0828380E00895AF
S11308E080E00895E0E0FAE081E0868782878AEF7D
S11308F090E086A397A387E0808380E00895909199
S11309000008E0918638EF5FE77080918538E8173A
S113091059F0E0938638F0E0E957F74C90838091E2
S113092084388F5F80938438089580917938882340
S113093089F0E0917A38EF5FE770E0937A38F0E07D
S1130940E458F74C80818093020880917938815073
S11309508093793880917938811105C0E0E0F8E01E
S113096085818F7D85830895613019F0623031F07F
S11309700895809363389093643808958093613820
S11309809093623808951F920F920FB60F9211241C
S11309902F933F934F935F936F937F938F939F9383
S11309A0AF93BF93EF93FF93E0916338F091643872
S11309B0309709F00995FF91EF91BF91AF919F9105
S11309C08F917F916F915F914F913F912F910F90F4
S11309D00FBE0F901F9018951F920F920FB60F9293
S11309E011242F933F934F935F936F937F938F9330
S11309F09F93AF93BF93EF93FF93E0916138F0918E
S1130A006238309709F00995FF91EF91BF91AF914A
S1130A109F918F917F916F915F914F913F912F9112
S1130A200F900FBE0F901F90189520917B382F5F69
S1130A302770909179389830E1F3E22FF0E0E45890
S1130A40F74C808320937B380FB6F8940F928091F3
S1130A5079388F5F809379380F900FBEE0E0F8E02B
S1130A608581806285830895E0E0F8E086EB92E07A
S1130A708087918780E8858380EC8683109285380F
S1130A80109286381092843810927A3810927B38FB
S1130A901092793880E00895FC01892BA1F040E0A0
S1130AA050E0BA0105C04F5F5F4F6F4F7F4FF901B0
S1130AB09F012F5F3F4F80818111F5CF342F252F68
S1130AC0862F972F04C030E020E080E090E0632F71
S1130AD0722F0895CF93DF93EB01009771F1209764
S1130AE079F16817790790F49B01240F351F2817B3
S1130AF0390778F01EC0FC01E20FF31FDE01A20FDC
S1130B00B31F7C9170832F5F3F4F05C020E030E01E
S1130B1002C020E030E02417350768F313C04150C9
S1130B205109FC01E40FF51FDE01A40FB51F2C9140
S1130B3020834115510599F705C080E090E002C07B
S1130B4080E090E0DF91CF910895FC016081862FD1
S1130B5090E0A0E0B0E0BA2FA92F982F8827218138
S1130B60822BBA2FA92F982F88272281822BBA2F64
S1130B70A92F982F88272381BC01CD01622B0895CA
S1130B800F931F93CF93DF93909171399130D9F0E4
S1130B90C52FD42F8B01682F80E090E00E948C0831
S1130BA060E00E948C086C2F0E948C086D2F0E94BC
S1130BB08C084D2F5C2FB8010E949208AC0163E0B1
S1130BC087E00E94B20881E0DF91CF911F910F91DD
S1130BD00895CF93909171399130F1F0C62F682F19
S1130BE080E090E00E948C0861E00E948C0860E044
S1130BF00E948C0861E00E948C08C11105C060E06D
S1130C000E948C08AC0104C061E00E948C08AC0115
S1130C1063E087E00E94B20881E0CF910895CF920B
S1130C20DF92EF92FF9290917139913061F16A01F4
S1130C307B01682F80E090E00E948C0862E00E94B3
S1130C408C0860E00E948C0864E00E948C084F2DA0
S1130C50552766277727642F0E948C08A7016627EB
S1130C607727642F0E948C0877276F2D5E2D4D2DDA
S1130C70642F0E948C086C2D0E948C08AC0163E0E8
S1130C8087E00E94B20881E0FF90EF90DF90CF9060
S1130C900895CF93909171399130B9F0C62F682F90
S1130CA080E090E00E948C0864E00E948C0860E080
S1130CB00E948C0861E00E948C086C2F0E948C08B2
S1130CC0AC0163E087E00E94B20881E0CF9108950F
S1130CD0FC0180810895FC01808108950E94A5058E
S1130CE00895409136395091373920911D3930910A
S1130CF01E39BA01621B730B61307105F1F04217A2
S1130D00530730F4B901641B750B67317105A8F4FE
S1130D102653394330F02FE139E320931D393093C2
S1130D201E39E0911D39F0911E399F012F5F3F4F0D
S1130D3020931D3930931E39808308950F931F9398
S1130D40CF93DF930FC0C0918F38D0919038CE01EC
S1130D50019680938F38909390380E94D009C350A5
S1130D60D74C888380918F38909190384F9720F496
S1130D700E94C1098111E7CF80918F3890919038FA
S1130D80079708F463C0C0E0D0E048C0FE01E35018
S1130D90F74C8081853511F0219640C0CE01019633
S1130DA0FC01E350F74C20812A3AA9F50196FC0195
S1130DB0E350F74C2081211130C0FE01EF5FF64C67
S1130DC0208180E0922FFE01EE5FF64C008110E05E
S1130DD0095F1F4F080F191F0732110510F02396E2
S1130DE01DC04017510720F1B80161507109CE01AF
S1130DF08350974C0E94A4080C0F1D1FF801E45067
S1130E00F74C9081891711F0239608C0CE010E94F7
S1130E105209E80103C0EC0101C0EC0140918F3894
S1130E20509190384C1B5D0B4730510508F0AECF04
S1130E3040938F38509390384115510539F0BE01D5
S1130E406350774C8DEF98E30E946A05DF91CF9150
S1130E501F910F9108958FE199E380931D39909329
S1130E601E398093363990933739109271398FEF48
S1130E7080936F39089580916F390895CF930E94BC
S1130E806806C82F811104C080E00E94C80003C016
S1130E9081E00E94C8006C2F81E00E94E905813046
S1130EA009F080E0CF9108950E946E06AB01BC0169
S1130EB082E00E940F06813009F080E008950E94CC
S1130EC06E06AB01BC0187E00E940F06813009F079
S1130ED080E008950F931F93CF93DF930E946E06D3
S1130EE0C62F072F182FD92F862F0E94EA004C2FC8
S1130EF0502F612F7D2F84E00E940F06813009F06E
S1130F0080E0DF91CF911F910F910895CF930E94BC
S1130F106806C82F811104C080E00E94660003C0E7
S1130F2081E00E9466006C2F85E00E94E905813013
S1130F3009F080E0CF9108950E946B06682F8BE042
S1130F400E944906813009F080E00895AB01BC019C
S1130F5085E60E94C005813009F080E00895CF93B2
S1130F600E946B06C82F882319F0813029F008C02D
S1130F7080E00E948B0007C081E00E948B0003C0C8
S1130F8080E00E948B006C2F86E60E944906813027
S1130F9009F080E0CF9108950E94150508950E94FC
S1130FA08800682F81E00E94E9050E943601482FDD
S1130FB050E060E070E084E00E940F060E9482002E
S1130FC0682F85E00E94E9050E94AF00682F86E63D
S1130FD00E94490608959B01853029F138F4823036
S1130FE0B1F08430D1F08130D9F50BC08B3039F1B8
S1130FF018F48730F1F034C0853639F1863659F16A
S11310002FC0BA01C9010E943E07982F29C0BA0116
S1131010C9010E945407982F23C0BA01C9010E9434
S11310206A07982F1DC0BA01C9010E948607982F2C
S113103017C0BA01C9010E945F07982F11C0BA01F5
S1131040C9010E949C07982F0BC0BA01C9010E94D4
S1131050A607982F05C0BA01C9010E94AF07982FAF
S1131060892F089588E008950F931F93CF93DF93FA
S1131070EC01892B69F06115710529F409C0899186
S11310800E94CC07B8018B0101501109672BB9F7F5
S1131090DF91CF911F910F910895CF93C82F0E9494
S11310A03208282F80E00AC0E82FF0E0EE0FFF1F7F
S11310B0EE51F64590819C1719F08F5F8217A0F3CB
S11310C0CF910895EF92FF920F931F93CF93DF93E5
S11310D0EC01F880E98000E01A818B81080F111D72
S11310E08F2D0E944D08E82FF0E0EE0FFF1FEE5108
S11310F0F6458181E81208C0BE016C5F7F4FA801EC
S11311008F2D0E94EB0701C080E0DF91CF911F91EA
S11311100F91FF90EF900895FC01E25CF64C608320
S1131120019608950F931F93CF93DF938C01EA01E7
S1131130825C964C0E946A05C8018C0F9D1FDF914A
S1131140CF911F910F910895FC0180E020E030E0E1
S113115005C09081890F2F5F3F4F319626173707BF
S1131160C0F308950F931F93CF93DF93E8E3F9E35C
S113117095E590839AEA91836283838354834583BC
S11311808A01095F1F4FEA012696BE01CF010E9422
S1131190A408C85CD64C8883B80188E399E30E940C
S11311A03408DF91CF911F910F9108958091913868
S11311B0811109C060E080E090E00E948C0891E019
S11311C09093913805C061E080E090E00E948C0823
S11311D0482F50E063E080E00E94B2080895CF9366
S11311E082EF99EA0E944C05AB0162EF79EA80E054
S11311F090E00E949208C82F89EF99EA0E944C055A
S1131200AB0169EF79EA8C2F90E00E949208C82F15
S11312108AE09AEA0E944C05AB016AE07AEA8C2FD4
S113122090E00E949208C82F82E19AEA0E944C053D
S1131230AB0162E17AEA8C2F90E00E949208C82FF9
S113124088E19AEA0E944C05AB0168E17AEA8C2FA6
S113125090E00E949208C82F8FE19AEA0E944C0500
S1131260AB016FE17AEA8C2F90E00E949208C82FBC
S113127081E29AEA0E944C05AB0161E27AEA8C2F82
S113128090E00E949208AC01552763E081E00E943F
S1131290B208CF91089540E050E063E082E00E94FC
S11312A0B2080895CF92DF92EF92FF920F931F93AB
S11312B0CF93DF93FC01E050F74CE0814E2F50E0D8
S11312C04930510508F054C08C01FA01E25CFF4F2B
S11312D00C94E9140E94D6084BC00E94EF0848C041
S11312E00E944B0945C0FC01ED5FF64C8081809360
S11312F06F3940E050E063E083E00E94B20838C0F8
S113130081E08093703934C081E080931C3930C00F
S1131310FC01EF5FF64CE080F12CFE2CEE24FC0186
S1131320EE5FF64C8081E82AC12CD12C1BC0C6018B
S1131330800F911FFC01EB5FF64C408120E0342FBD
S1131340FC01EA5FF64C4081E901C40FD11D8D5FB9
S1131350964C0E94620896012C0F3D1F690184E09F
S1131360C80ED11CCE14DF0410F302C00E94CF07B4
S1131370DF91CF911F910F91FF90EF90DF90CF906D
S1131380089520911D3930911E39809136399091FC
S113139037392817390711F081E0089580E008955E
S11313A0209136393091373940911D3950911E3989
S11313B024173507A1F02653394330F08FE199E320
S11313C08093363990933739E0913639F091373933
S11313D0CF010196809336399093373980810895EF
S11313E08091A038882309F403C180919F3881300B
S11313F009F0EBC090919E389A3008F4E6C0E09171
S11314009A38F0919B380995811107C080919938D9
S1131410811103C081E080939938E0919A38F0916A
S11314209B380995811164C080919938882309F407
S11314305FC01092983880919738811124C06091D0
S11314409E3870E080E090E00E94F0132CEA3AEAC3
S113145046EA52E40E947C1420E030E044E353E482
S11314600E944D130E94BF13609395387093963871
S113147081E08093973885E090E08093933890934F
S113148094381092923880919538909196380097BC
S113149029F00197809395389093963880919538E8
S11314A090919638892B21F580919238811120C032
S11314B0E0919C38F0919D3881E0099580919338B2
S11314C090919438009729F00197809393389093E2
S11314D094388091933890919438892B49F4E09111
S11314E09C38F0919D3880E0099581E08093923892
S11314F0E0919A38F0919B380995882309F478C0D3
S113150080919938882309F473C010929738809198
S11315109838811124C060919E3870E080E090E09A
S11315200E94F0132CEA3AEA46EA52E40E947C1440
S113153020E030E044E353E40E944D130E94BF13C3
S1131540609395387093963881E08093983885E05D
S113155090E08093933890939438109292388091CD
S1131560953890919638009729F001978093953893
S1131570909396388091953890919638892BC1F53F
S113158080919238811134C0E0919C38F0919D385B
S113159081E009958091933890919438009729F0CF
S11315A001978093933890939438809193389091D5
S11315B09438892BE9F4E0919C38F0919D3880E0CF
S11315C0099581E0809392380895813059F480918F
S11315D09E388A3038F4E0919C38F0919D3881E04F
S11315E009950895E0919C38F0919D3880E0099523
S11315F00895CF93DF93CDB7DEB72697CDBFDEBF77
S113160049835A836B837C838D839E8386E0FE01AA
S11316103196AAE9B8E301900D928A95E1F781E049
S11316208093A0382696CDBFDEBFDF91CF91089579
S1131630873908F086E980939E38089580939F380F
S1131640089580919F380895CF92DF92FF920F936F
S11316501F93CF93DF93EC01AE81BF81EB01CC0FDD
S1131660DD1FC60FD71FCA0FDB1FFA80FC014481A0
S11316705581E6E0E69F9001E79F300D11248A0131
S1131680020F131FF80122813381F9012181328174
S1131690F80104811581201B310BE8812E1B3109CF
S11316A0EC01EA81FB8100811181FA0140E050E004
S11316B04017510739F146175707F9F012968C91E4
S11316C01297F8121AC0808185588230E8F0C480DD
S11316D0D58082819381EC0189819A81C816D906CB
S11316E060F48C199D09CC91D0E0C817D90728F46F
S11316F08C1B9D0B2817390738F04F5F5F4F1396EB
S11317003696D6CF80E001C081E0DF91CF911F9162
S11317100F91FF90DF90CF9008952091A1383091E0
S1131720A238820F931F8093A1389093A238089512
S11317300097D9F041155105C1F026E0629FB00130
S11317401124DC011496ED91FC911597E60FF71F17
S113175021E0208314968D919C911597FC01E60F4E
S1131760F71F4283538380E008958BE008952F92FE
S11317703F924F925F926F927F928F929F92AF921D
S1131780BF92CF92DF92EF92FF920F931F93CF936A
S1131790DF93009709F47EC3EC01A12CB12C812CBA
S11317A0912C212CD12C5524539433E0C32E45E89D
S11317B0642E56E8752E62E0362E78E0472EEA81D4
S11317C0FB81808191818816990608F0A6C1750174
S11317D0EE0CFF1CEC81FD81EE0DFF1DA281B38197
S11317E09C919E7109F050820C811D810E0D1F1D6C
S11317F0D8018C91843009F49EC038F48230D1F041
S113180008F045C0813059F081C1853809F4BFC062
S1131810863809F4F5C0873009F078C136C19111D2
S113182067C1F80130828C819D81FC01EE0DFF1DA2
S113183041825EC1D80111962C911197222329F17E
S11318401296ED91FC911397253018F081819281C5
S11318500EC0D80114968D919C91159741815281A7
S11318608417950769F04817590730F401971496BF
S11318708D939C93159704C00196F80184839583F6
S11318802150D80111962C9333C1F8012DC1D801F0
S113189014962D913C9115971296ED91FC91139706
S11318A0418152812417350709F430C18E819F810B
S11318B042175307F8F4EA81FB81241B350BDC0142
S11318C0AA0DBB1D8C9190E0058002C0959587956B
S11318D00A94E2F799272817390708F417C1848175
S11318E0882309F413C187E0F8018083EA81FB812E
S11318F024811AC0FC01EA0DFB1D421B530B80819D
S113190090E04817590708F401C18281882331F017
S1131910B401CE010E94240B8111F8C0E4E0D80187
S1131920EC93EA81FB8122818C819D81FC01EE0D87
S1131930FF1D2183DDC0D80114962D913C9115978C
S11319401296ED91FC9113978181928182179307EE
S113195008F4BBC0EE81FF81EA0DFB1D821B930BD3
S1131960208130E02817390708F0C5C08281882318
S113197031F0B401CE010E94240B8111C7C0F801DB
S11319808181882309F46AC081508183B1C0E881D0
S1131990F981AA81BB8118968C918383EC81FD81A6
S11319A0EE0DFF1D44815581A281B38111968D9165
S11319B09C91129784179507C0F0AE81BF81AA0D40
S11319C0BB1D6C91262F30E011967C917F5F02C085
S11319D0359527957A95E2F7841B950B621B262F84
S11319E030E02817390708F48FC07082EA81FB8140
S11319F022818C819D81FC01EE0DFF1D218342C05B
S1131A00D80114966D917C9115971296ED91FC91E5
S1131A101397218132812617370758F411968C9138
S1131A201197811102C0CC926FC08150F80181835B
S1131A306BC0EE81FF81EA0DFB1D8081482F50E0D1
S1131A4091819F5F02C0559547959A95E2F7261BB1
S1131A50370B841B90E08217930760F4D8016C92D3
S1131A60EA81FB8123818C819D81FC01EE0DFF1DA8
S1131A7021834AC0F8018181811102C0C08244C01F
S1131A80815081832224239433C0F8012481358139
S1131A900280F381E02D818192818217930758F5AA
S1131AA0281B390BEE81FF81EA0DFB1D808190E03C
S1131AB0EA81FB81058002C0959587950A94E2F737
S1131AC099272817390718F4D801CC9216C0F801C1
S1131AD0818181110BC050828C819D81FC01EE0DAE
S1131AE0FF1D0280F381E02DC08210C081508183EC
S1131AF0DD24D3940BC0F801C0828C819D81FC014C
S1131B00EE0DFF1D118202C022242394FFEF8F1AD1
S1131B109F0A83E0A80EB11C52CEE881F98180812E
S1131B2087FF23C040E050E020E030E0EA81FB8101
S1131B30808191812817390798F4EC81FD81E40FA5
S1131B40F51FA281B3818C9180FD05C09081977FA0
S1131B5011F081608C932F5F3F4F4A5F5F4FE6CF58
S1131B60E881F98180818F778083D11007C0E88173
S1131B70F98121106FC080818E7F6EC0EA81FB8164
S1131B8081858823A1F3E881F9818081806880833D
S1131B90EA81FB818185813051F740E050E020E00B
S1131BA030E096E0D92EEA81FB81608171812617AD
S1131BB03707E8F60C811D81FA01EE0FFF1FE00FD5
S1131BC0F11F8081982F977FA1F1853811F0833020
S1131BD0B1F5EE80FF80D701A40FB51F1296BC901B
S1131BE0BB2039F180E090E0C12C86179707F8F408
S1131BF028173907D1F0D89ED001D99EB00D1124F1
S1131C00A00FB11FAC91A43011F0A63871F4DC011F
S1131C10AA0FBB1FA80FB91FAE0DBF1D1296AC9122
S1131C20BA1203C0CB01CC24C3940196DECFC110F9
S1131C3006C00280F381E02D80818E7F05C0028082
S1131C40F381E02D8081816080832F5F3F4F4D5F62
S1131C505F4FA9CF8081816080838091A13890916A
S1131C60A238E881F98121813281A90148535F4F6B
S1131C704817590738F4821B930BAA24A394A3E0B2
S1131C80BA2E44C08217930710F080E004C1821B6F
S1131C90930B0197893C9105C0F3EFCF885C9109C0
S1131CA0E881F9812181328128533F4F2183328396
S1131CB02381211196C02481222311F021502483F1
S1131CC0E881F9812581222311F0215025838A801E
S1131CD09B80D40116962C91169721111BC08A80E3
S1131CE09B80F4012781211148C0EA81FB81238173
S1131CF0222361F020E030E0A0E0B0E0EA81FB8143
S1131D0040815181A417B50708F46EC0893C910540
S1131D1028F6BBCF08811981F80124812111DFCF76
S1131D20ED90FC9060E070E040E050E04E155F05FF
S1131D30F1F0EC81FD81E60FF71F2081233011F0D3
S1131D40283081F424813581C280D380D601119654
S1131D50CD90DC9012972C153D0520F42F5F3F4F5A
S1131D60248335834F5F5F4F6A5F7F4FDFCFF4017A
S1131D702681D80114962C93B2CF08811981D801F9
S1131D8015962C912111B1CFE080F18060E070E0D4
S1131D9040E050E04E155F05F1F0EC81FD81E60F67
S1131DA0F71F2081233011F0283081F424813581FC
S1131DB0C280D380D6011196CD90DC901297C216C2
S1131DC0D30620F421503109248335834F5F5F4FBC
S1131DD06A5F7F4FDFCFF4012781D80115962C93DA
S1131DE084CF2150238381CFA901440F551FEC8157
S1131DF0FD81E40FF51F6081653809F047C06181FA
S1131E00662319F06150618341C0A0826C817D8199
S1131E10FB01E40FF51F0280F381E02DB082EE8117
S1131E20FF81E20FF31FD280DD2081F140E050E01A
S1131E3000E010E0EA81FB816081718106171707D9
S1131E4028F5EE81FF81E40FF51F6281D61219C0D7
S1131E50BA01660F771FEC81FD814F01860E971E34
S1131E60F401E280F380F701F080F0FE0AC0F4018F
S1131E70A082EC81FD81E60FF71F0280F381E02D43
S1131E80B0820F5F1F4F4D5F5F4FD4CF11962D5F10
S1131E903F4F34CF8BE0DF91CF911F910F91FF9093
S1131EA0EF90DF90CF90BF90AF909F908F907F90F6
S1131EB06F905F904F903F902F9008958091A63837
S1131EC09091A738A0917239B0917339ED91FC913A
S1131ED011974081518125E0289FB001299F700D01
S1131EE0112420E030E084179507A8F41496ED91AE
S1131EF0FC911597E20FF31FE60FF71FE0812B5FAC
S1131F003F4FE0FD02C00196EECF8093A638909338
S1131F10A73880E008951092A6381092A73881E07F
S1131F200895BC01E0917239F09173399C0183E00A
S1131F30220F331F8A95E1F7A281B381A20FB31F49
S1131F4012969C91129713968C9190932A068093E3
S1131F502B06A281B381A20FB31F9C9111968C9181
S1131F60909326068093270695E0969FA001979F5D
S1131F70500D1124A481B581A40FB51F13968C9123
S1131F8080931A06A481B581A40FB51F14968C9171
S1131F9080931B06A481B581A40FB51F8C9181FD8C
S1131FA09C9384819581DC01A40FB51F8C918C7165
S1131FB069F4A281B381A20FB31F1696AC91A295C6
S1131FC0AF70B0E0AD5DB5458C9101C08FE38093F7
S1131FD01C06A281B381A20FB31F14968C918B317E
S1131FE010F48C5F01C08FE180930506A281B38158
S1131FF0A20FB31F17968C9180930106A281B3811F
S1132000A20FB31F15968C9182958F708093190639
S113201082819381FC01E20FF31F85818F708061BF
S1132020809302068091180683608093180681E8E5
S11320308093000681E08093080608953F924F92B2
S11320405F926F927F928F929F92AF92BF92CF9244
S1132050DF92EF92FF920F931F93CF93DF938091C0
S1132060A538882309F448C1A0917239B091733915
S1132070C0907439D090753900E010E060E070E0F1
S1132080E12CF12C80E033243394D1E84D2E8824C4
S11320908A94992493946D907C901197F3012081F4
S11320A03181E216F30608F023C1E6012991399142
S11320B06E011496ED91FC911597E60FF71F408180
S11320C04C7150E0569547955695479541155105E5
S11320D021F041305105B9F002C11296CD91DC9145
S11320E01397C00FD11F4E814F709F81491710F471
S11320F0941B01C090E002C0369527959A95E2F7AB
S113210021833283EDC012964D915C911397400F59
S1132110511FEA010F8002C0369527950A94E2F711
S113212021833283A380B4802115D2E03D0720F0BF
S11321302F5F314091E005C0A401421B530B9A016B
S113214090E0E3015A80D0E45D1205C036952795EE
S1132150992319F009C0992339F04FEFA416B40656
S113216031F440828EE007C07724739401C0712C4F
S11321702A30310590F41496ED91FC911597E60FF1
S1132180F71F908197FF30821496ED91FC9115977B
S1132190E60FF71FA382B482A3C0E501CD2FDD278C
S11321A0C295CF709C2FA50144275F70652EA501B1
S11321B0407F5527529542954F7045275F704527BC
S11321C05A2D5F70A52EC43030F09370D695C79504
S11321D0D695C7959C0F71103CC050E8550D5230F0
S11321E010F456E007C053E005C0951768F49F5FEC
S11321F02F5C3109203D3105C0F706C0CFE06C16D5
S113220049F063942551310926313105B8F7DFE0EF
S11322106D120EC0951720F49F5FD5E06D2E08C097
S1132220CFE06C2E05C04F3049F04F5F225031098A
S113223023303105C0F74F3009F065C04FE0641614
S113224081F1639445E05FC0992361F091502F5C64
S11322503109203D3105C0F705C0662041F06A947C
S11322602551310926313105C0F761100DC099237C
S113227021F091505AE0652E07C0612C05C044231B
S113228041F041502250310923303105C0F741114A
S113229010C06620E9F16A944AE023303105C8F69B
S11322A008C059132FC02330310540F14FE0A42E4C
S11322B04FE0943018F0990F990F9950C0E14C9F5A
S11322C0A001112456294A29C92FD0E0DC2FCC279C
S11322D0D295D07F4C2B5D2B4383548301C0FFCF19
S11322E0DFEFED1AFD0A6B5F7F4F085F1F4FD3CE00
S11322F092E09093A5380EC083E00CC04FE02FE02D
S1132300A22ED7CF4FE02330310508F073CFD1CFC1
S113231040E0CFCFDF91CF911F910F91FF90EF90CD
S1132320DF90CF90BF90AF909F908F907F906F90F1
S11323305F904F903F900895CF93DF930097E1F122
S1132340DC01ED91FC91A081B18160E070E040E09E
S113235050E020E030E04A175B0799F0EC01EA8195
S1132360FB81E60FF71FC081D1810280F381E02D4C
S1132370EC2BFD2B2E2B3F2B4F5F5F4F685F7F4F66
S1132380EACF21153105D1F08091A538811108C01B
S1132390209322063093230681E08093A5380AC057
S11323A080912206822B8093220680912306832B20
S11323B08093230680E003C08BE001C082E0DF91BC
S11323C0CF910895009731F08093743990937539C3
S11323D080E008958BE0089561157105A1F10097DF
S11323E091F12091A538222381F1243081F1809349
S11323F07239909373396093A3387093A438109210
S11324001806DC01ED91FC912281203439F420EC92
S11324102093180620911806206205C0203841F444
S11324202091180628622093180610921E0613C0E5
S1132430213879F42091180628622093180626E89A
S113244020931E0608C08BE0089583E0089581E080
S1132450089582E0089510920006DC01ED91FC914C
S11324608481803108F080E18093030681E08093C9
S11324700B0680930A06809365381092A638109252
S1132480A7380E945E0F81110BC084E08093A538A9
S11324908091A6389091A7380E94910F80E008950A
S11324A082E08093A53808950097C9F0DC01ED918E
S11324B0FC911197208131812617370790F045E070
S11324C0469F9001479F300D11241496ED91FC9185
S11324D01597E20FF31F81E0808380E008958BE07D
S11324E0089582E00895FC01892BD1F1A081B18186
S11324F08D919C91119786179707A0F112969C9144
S11325000480F581E02D903459F485E0869FD00154
S1132510879FB00D1124AE0FBF1F84E392E00DC05E
S11325209058923080F485E0869FD001879FB00D4B
S11325301124AE0FBF1F87E695E013968D939C93ED
S1132540149780E001C082E095E0969F9001979FE8
S1132550300D1124E20FF31F90819260908308954F
S11325608BE0089582E008951092000640911006D1
S1132570509111068091A6389091A7389C01220FA2
S1132580331FE0917439F0917539E20FF31F4083E2
S1132590518301968093A6389093A7380E945E0FCA
S11325A0811109C084E08093A5388091A638909168
S11325B0A7380C94910FE091A338F091A4380994B2
S11325C05058BB27AA270E94F8120C9442140E9468
S11325D0341438F00E943B1420F039F49F3F19F46E
S11325E026F40C9431140EF4E095E7FB0C942B14B0
S11325F0E92F0E94531458F3BA176207730784072C
S1132600950720F079F4A6F50C9475140EF4E09572
S11326100B2EBA2FA02D0B01B90190010C01CA0198
S1132620A0011124FF27591B99F0593F50F4503E43
S113263068F11A16F040A22F232F342F4427585F35
S1132640F3CF469537952795A795F0405395C9F74D
S11326507EF41F16BA0B620B730B840BBAF0915005
S1132660A1F0FF0FBB1F661F771F881FC2F70EC0A4
S1132670BA0F621F731F841F48F487957795679577
S1132680B795F7959E3F08F0B0CF9395880F08F063
S11326909927EE0F9795879508950E9461130C94DE
S11326A042140E943B1458F00E94341440F029F460
S11326B05F3F29F00C942B1451110C9476140C9454
S11326C031140E94531468F39923B1F3552391F301
S11326D0951B550BBB27AA2762177307840738F08D
S11326E09F5F5F4F220F331F441FAA1FA9F335D0EA
S11326F00E2E3AF0E0E832D091505040E695001C9E
S1132700CAF72BD0FE2F29D0660F771F881FBB1F57
S1132710261737074807AB07B0E809F0BB0B802D35
S1132720BF01FF2793585F4F3AF09E3F510578F061
S11327300C942B140C9476145F3FE4F3983ED4F37A
S1132740869577956795B795F7959F5FC9F7880F35
S1132750911D9695879597F90895E1E0660F771F87
S1132760881FBB1F621773078407BA0720F0621B18
S1132770730B840BBA0BEE1F88F7E09508950E9443
S11327805B1488F09F5798F0B92F9927B751B0F090
S1132790E1F0660F771F881F991F1AF0BA95C9F7E1
S11327A014C0B13091F00E947514B1E008950C94F6
S11327B07514672F782F8827B85F39F0B93FCCF3A9
S11327C0869577956795B395D9F73EF4909580955E
S11327D0709561957F4F8F4F9F4F0895E89409C07E
S11327E097FB3EF490958095709561957F4F8F4F40
S11327F09F4F9923A9F0F92F96E9BB279395F69556
S1132800879577956795B795F111F8CFFAF4BB0FD3
S113281011F460FF1BC06F5F7F4F8F4F9F4F16C037
S1132820882311F096E911C0772321F09EE8872FC1
S1132830762F05C0662371F096E8862F70E060E07D
S11328402AF09A95660F771F881FDAF7880F9695F6
S1132850879597F9089597F99F6780E870E060E09D
S113286008959FEF80EC089500240A941616170625
S113287018060906089500240A941216130614066D
S113288005060895092E0394000C11F4882352F0D0
S1132890BB0F40F4BF2B11F460FF04C06F5F7F4F88
S11328A08F4F9F4F089557FD9058440F551F59F06F
S11328B05F3F71F04795880F97FB991F61F09F3F29
S11328C079F087950895121613061406551FF2CF52
S11328D04695F1DF08C0161617061806991FF1CFA2
S11328E086957105610508940895E894BB276627C9
S11328F07727CB0197F908950E948F140C94421402
S11329000E94341438F00E943B1420F0952311F0F7
S11329100C942B140C94311411240C9476140E94EE
S1132920531470F3959FC1F3950F50E0551F629FA8
S1132930F001729FBB27F00DB11D639FAA27F00D14
S1132940B11DAA1F649F6627B00DA11D661F829F3B
S11329502227B00DA11D621F739FB00DA11D621F20
S1132960839FA00D611D221F749F3327A00D611D3D
S1132970231F849F600D211D822F762F6A2F11241F
S11329809F5750409AF0F1F088234AF0EE0FFF1F52
S1132990BB1F661F771F881F91505040A9F79E3FA9
S11329A0510580F00C942B140C9476145F3FE4F3DF
S11329B0983ED4F3869577956795B795F795E795FF
S11329C09F5FC1F7FE2B880F911D9695879597F908
S11329D00895EE0FFF1F0590F491E02D0994F894EB
S10529E0FFCF23
S11329E2010102020402050107020B0465006604E8
S11329F27B2270223A22006D637663666F66666B91
S1132A027061676D77366900222C2276223A2200A1
S1132A12312E302E3000222C226D223A0032007DDB
S10A2A22003F1C0B0503013A
S1132A290364A8381C38D9380A3814010014010081
S1132A39140100140100140100140100060004002B
S1132A490500140514015C382C38AF380000010066
S1132A590003000400000800000300040000100043
S1132A690003000400000400000300040000200027
S1132A790003000400000200000300040600803083
S1092A890095047F040126
S9030000FC
